:0300000002013DBD
:0C013D00787FE4F6D8FD7581080200030D
:10012D003F065B4F666D7D077F6F777C395E79711A
:1000030012003512010B12004F12010B120069127C
:10001300010B12008312010B12009D12010B12003F
:10002300B712010B1200D112010B1200EB12010BDC
:0200330080CE7D
:10003500E4F508C2A2C2A3C2A4F508E508120105A9
:090045000508E508C3941040F21F
:01004E00228F
:10004F00E4F508D2A2C2A3C2A4F508E5081201057F
:09005F000508E508C3941040F205
:010068002275
:10006900E4F508C2A2D2A3C2A4F508E50812010565
:090079000508E508C3941040F2EB
:01008200225B
:10008300E4F508D2A2D2A3C2A4F508E5081201053B
:090093000508E508C3941040F2D1
:01009C002241
:10009D00E4F508C2A2C2A3D2A4F508E50812010531
:0900AD000508E508C3941040F2B7
:0100B6002227
:1000B700E4F508D2A2C2A3D2A4F508E50812010507
:0900C7000508E508C3941040F29D
:0100D000220D
:1000D100E4F508C2A2D2A3D2A4F508E508120105ED
:0900E1000508E508C3941040F283
:0100EA0022F3
:1000EB00E4F508D2A2D2A3D2A4F508E508120105C3
:0900FB000508E508C3941040F269
:0101040022D8
:10011A00E4FFE4FEE4FD0DBD64FC0EBE32F60FBF43
:02012A0032F0B1
:01012C0022B0
:0601050090012D93F5802E
:0E010B007F5F7E8A7D1DDDFEDEFADFF60000DE
:0101190022C3
:00000001FF
