:030000000200BF3C
:0C00BF00787FE4F6D8FD7581090200038B
:100003007508FEE4F509120098E50825E004F508F3
:100013000509E509C3940840EDE4F509120098E5E4
:100023000825E0F5080509E509C3940940EE7508BC
:10003300FF750908120098E508C313F5081509E5CB
:1000430009D3940050EEE4F509120098E50825E081
:1000530025E004F5080509E509C3940540EBE4F53B
:1000630009120098E5081313543FF5080509E5093B
:10007300C3940540ECE4F509120098E508C3132482
:1000830080F5080509E509C3940940EC7508FF12DA
:050093000098020003CB
:070098008508A07FF47E0142
:10009F00E4FDFCC3ED9FEC9E5015E4FBFA0BBB0097
:0F00AF00010AEB64794A70F50DBD00010C80E485
:0100BE00221F
:00000001FF
